:020000040800F2
:1000000068060020CD0100084105000839050008F8
:100010003D05000887020008E9090008000000000B
:100020000000000000000000000000000D060008B5
:100030008B02000800000000C9050008F90600084E
:10004000E7010008E7010008E7010008E7010008F0
:10005000E7010008E7010008E70100088D02000839
:10006000E7010008E7010008E7010008E7010008D0
:10007000E7010008E7010008E7010008E7010008C0
:10008000E7010008E7010008E7010008E7010008B0
:10009000E7010008E7010008E7010008E7010008A0
:1000A000E7010008E7010008E7010008E701000890
:1000B000E7010008E7010008E7010008E701000880
:1000C000E7010008E7010008E7010008E701000870
:1000D000E7010008E7010008E7010008E701000860
:1000E000E7010008E7010008E7010008E701000850
:1000F000E7010008E7010008E7010008E701000840
:10010000E7010008E7010008E7010008E70100082F
:10011000E7010008E7010008E7010008E70100081F
:10012000E7010008E7010008E7010008E70100080F
:1001300000F002F800F03AF80AA090E8000C8244BF
:100140008344AAF10107DA4501D100F02FF8AFF29C
:10015000090EBAE80F0013F0010F18BFFB1A43F0A5
:1001600001031847E018000000190000103A24BFEE
:1001700078C878C1FAD8520724BF30C830C144BF0C
:1001800004680C607047000000230024002500264E
:10019000103A28BF78C1FBD8520728BF30C148BFEA
:1001A0000B6070471FB51FBD10B510BD00F031F8D2
:1001B0001146FFF7F7FF00F0C9FC00F04FF803B459
:1001C000FFF7F2FF03BC00F057F800000948804732
:1001D00009480047FEE7FEE7FEE7FEE7FEE7FEE729
:1001E000FEE7FEE7FEE7FEE704480549054A064B41
:1001F00070470000FD06000831010008680000207B
:1002000068060020680200206802002070477047DE
:100210007047754600F02CF8AE4605006946534617
:1002200020F00700854618B020B5FFF7DDFFBDE8D8
:1002300020404FF000064FF000074FF000084FF04D
:10024000000B21F00701AC46ACE8C009ACE8C009DE
:10025000ACE8C009ACE8C0098D46704710B504464B
:10026000AFF300802046BDE81040FFF7A8BF0000B4
:10027000004870470400002001491820ABBEFEE78B
:1002800026000200704700BFFEE770472DE9F041ED
:10029000022000F03BF840B30121154800F05EFA5F
:1002A0000021134800F04BFB00BF0221114800F071
:1002B00036F90028F9D100210D4800F04FFA0C481A
:1002C00000F058FA00EB00104400204601F073F8EB
:1002D00005460022084B00F0E9FE074600F00CFE40
:1002E00006490860022000F00BF8BDE8F08100002C
:1002F00000100040001001400000344000000020C9
:1003000001490860704700001404014001460020C4
:100310000022074B1B6803EA0102054B14331B68DC
:100320000B4013B10AB1012000E00020704700002B
:1003300000040140002123498279002A3AD00A466C
:10034000126803689A430B461A600A1D1268036814
:100350009A430B1D1A60027911440A6803681A4314
:100360000A60184A0832126803689A43154B08332A
:100370001A601A1D126803689A43124B0C331A60F4
:100380004279102A0ED11A1F126803681A430D4BC6
:1003900008331A601A1D126803681A43094B0C339C
:1003A0001A600DE00749427911440A6803681A434C
:1003B0000A6005E0027911440A6803689A430A60FA
:1003C000704700000004014030B500228B071C0F6D
:1003D0000F2303FA04F20B4B8C1053F82430934391
:1003E000084C8D1044F8253023468C1053F82430E7
:1003F0008C07240F00FA04F42343024C8D1044F8B8
:10040000253030BD080001402DE9F04102460025AD
:100410000026002000230024002791F803C00CF0E0
:100420000F0591F803C00CF0100CBCF1000F03D0C5
:1004300091F802C04CEA050591F800C0BCF1000F2C
:1004400031D0146800202BE04FF0010C0CFA00F3BF
:10045000B1F800C00CEA03069E4220D183004FF0A1
:100460000F0C0CFA03F7BC4305FA03FC4CEA040436
:1004700091F803C0BCF1280F06D14FF0010C0CFA23
:1004800000FCC2F814C00AE091F803C0BCF1480FA8
:1004900005D14FF0010C0CFA00FCC2F810C0401C52
:1004A0000828D1D31460B1F800C0BCF1FF0F34DDCF
:1004B000546800202EE000F1080C4FF0010808FA03
:1004C0000CF3B1F800C00CEA03069E4221D1830070
:1004D0004FF00F0C0CFA03F7BC4305FA03FC4CEA8F
:1004E000040491F803C0BCF1280F05D100F1080CF9
:1004F00008FA0CF8C2F8148091F803C0BCF1480F58
:1005000007D100F1080C4FF0010808FA0CF8C2F806
:100510001080401C0828CED35460BDE8F08102460C
:10052000002093680B400BB1012000E000207047D1
:10053000416170470161704700BFFEE700BFFEE701
:100540007047000070B5002100230F22C47804B367
:10055000154C246804F4E064C4F5E064210AC1F198
:100560000403CA40447804FA03F184781440214318
:1005700009010E4C0678A155047804F01F050124EA
:10058000AC4005786D11AD0005F1E025C5F80041DE
:1005900009E0047804F01F050124AC40044D0678FE
:1005A000761145F8264070BD0CED00E000E400E057
:1005B00080E100E002490143024A116070470000F7
:1005C0000000FA050CED00E07047000029B1064A72
:1005D000D2690243044BDA6104E0034AD2698243E0
:1005E000014BDA61704700000010024029B1064A51
:1005F00092690243044B9A6104E0034A9269824380
:10060000014B9A617047000000100240704710B51E
:1006100000F002F810BD00000CB500200190009021
:100620003348006840F480303149086000BF3048EA
:10063000006800F4003000900198401C0190009880
:1006400018B90198B0F5A06FF1D12948006800F4FD
:10065000003010B10120009001E0002000900098CF
:10066000012843D12348006840F010002149086068
:100670000846006820F0030008600846006840F063
:10068000020008601A4840681949486008464068F6
:1006900048600846406840F480604860084640680A
:1006A00020F47C1048600846406840F4E810486038
:1006B0000846006840F08070086000BF0C48006881
:1006C00000F000700028F9D00948406820F00300CD
:1006D000074948600846406840F00200486000BF93
:1006E0000348406800F00C000828F9D10CBD000058
:1006F00000100240002002407047000010B513486F
:10070000006840F00100114908600846406810493F
:1007100008400E494860084600680E4908400B49E9
:1007200008600846006820F4802008600846406899
:1007300020F4FE0048604FF41F008860FFF767FF59
:100740004FF000600449086010BD00000010024036
:100750000000FFF8FFFFF6FE08ED00E021B102887F
:1007600042F00102028004E002884FF6FE731A4054
:10077000028070470146888C7047000070B50024E5
:1007800000220023058C4FF6FE7635400584028C4E
:100790008388048B4FF68F752C40B51E2C400D8836
:1007A0002C43751E2A400D892A434D882A43144D37
:1007B000A8420BD0134DA84208D0134DA84205D033
:1007C000124DA84202D0124DA84213D14FF6F77530
:1007D0002A404D892A434FF6FB752A408D882A43CB
:1007E0004FF6FF652B404FF6FF552B408D892B436D
:1007F000CD892B4383800483CD888586028470BD98
:10080000002C014000340140004001400044014000
:100810000048014070B5002400220023058C4FF6EB
:10082000FF6635400584028C8388848B4FF68F7574
:100830002C404FF6FC752C400D882C434FF6FF558D
:100840002A400D894FF6FF7606EA05252A434D8892
:1008500006EA05252A43154DA84202D0144DA842A8
:100860001DD14FF2FF752A404D894FF6FF7606EAFB
:1008700005252A434FF6FF352A408D8806EA0525CF
:100880002A434EF6FF752B404DF6FF752B408D89A0
:1008900006EA05152B43CD8906EA05152B4383800F
:1008A0008483CD888587028470BD0000002C0140C0
:1008B0000034014070B5002200230024058C4EF660
:1008C000FF7635400584038C8488828B48F6FF755B
:1008D0002A404FF6FF452A400D884FF6FF7606EA7C
:1008E00005252A434DF6FF752B400D8906EA05358F
:1008F0002B434D8806EA05352B430B4DA84202D009
:100900000A4DA84208D14BF6FF752C408D894FF651
:10091000FF7606EA85152C4384808283CD88A0F873
:100920004050038470BD0000002C014000340140A1
:100930008186704781877047A0F840107047818496
:1009400070470000002202881D4B98420ED01D4BBC
:1009500098420BD0B0F1804F08D01B4B984205D085
:100960001A4B984202D01A4B984204D14FF68F731B
:100970001A404B881A43174B984207D0164B98429F
:1009800004D04FF6FF431A40CB881A4302808B886D
:1009900083850B8803850A4B98420BD0094B9842FC
:1009A00008D00E4B984205D00D4B984202D00D4B0B
:1009B000984201D10B7A038601238382704700009D
:1009C000002C0140003401400004004000080040B9
:1009D000000C0040001000400014004000400140A6
:1009E000004401400048014000BFFEE770B50446E6
:1009F00080210848FFF79EFD10210748FFF79AFD68
:100A0000C4F16400C5B2284600F01CFA284600F084
:100A100025FA70BD000C01400008014010B580218E
:100A20000648FFF785FD10210548FFF781FD0020EE
:100A300000F008FA002000F011FA10BD000C01408F
:100A40000008014010B5044680210748FFF770FDFB
:100A500010210648FFF76CFD204600F0F3F9204610
:100A600000F0FCF910BD0000000C0140000801403E
:100A700070B50446C4F16400C5B210210648FFF702
:100A800059FD284600F0DEF980210448FFF750FDAB
:100A9000204600F0E3F970BD00080140000C014061
:100AA00070B5044680210848FFF744FD102107482F
:100AB000FFF73EFDC4F16400C5B2204600F0C2F964
:100AC000284600F0CBF970BD000C01400008014041
:100AD00000B5034603E04FF47A7000F005F8181EE5
:100AE000A3F10103F7D100BD00EBC001C9004FF035
:100AF000E0225161002191610521116100BF4FF099
:100B0000E021096901F480310029F8D004214FF077
:100B1000E02211617047000010B5044800F062F94E
:100B20006420FFF7D5FF00F05DF810BD0000B4426F
:100B300010B5054800F056F94FF49670FFF7C8FF5E
:100B400000F050F810BD000000002F434FF4A060EB
:100B5000FFF730FD00F064F800F0C2F800F08AF909
:100B60003FE0FFF7D9FF0446002C34DDC82C32DA11
:100B70003C20FFF73BFF4FF4FA70FFF7A9FFFFF7A8
:100B80004DFFFFF7D5FF0546FA20FFF7A1FF00F064
:100B90001BF90646FA20FFF79BFFC82D09DAC82E7D
:100BA00007DA6420FFF764FF4FF4C870FFF790FF87
:100BB00017E0B54207DD6420FFF75AFF4FF4967047
:100BC000FFF786FF0DE06420FFF76AFF4FF4967091
:100BD000FFF77EFF05E03C20FFF734FF0A20FFF718
:100BE00077FFBEE770B501210A48FFF7A3FC142088
:100BF000FFF77AFF01210748FFF79AFC06490748EB
:100C0000006800F053FE054600F000FE0446204652
:100C100070BD0000001001400000204100000020D5
:100C200000B587B001210846FFF7E0FC0121102044
:100C3000FFF7DCFC01211020FFF7C8FC10208DF825
:100C40001B000120ADF8180003208DF81A0006A93A
:100C50002148FFF7D9FB48208DF81B000220ADF892
:100C6000180003208DF81A0006A91B48FFF7CCFBDB
:100C70000220049001208DF8160000208DF8140049
:100C800008208DF8150004A8FFF754FB012102206D
:100C9000FFF79AFB07208DF80C0001208DF80F005C
:100CA00002208DF80D008DF80E0003A8FFF74AFC16
:100CB0000020ADF80600ADF8020041F28730ADF833
:100CC000040041F61F40ADF8000069460348FFF7F5
:100CD00039FE07B000BD00000010014000100040C8
:100CE00000B589B001210420FFF770FC0121042028
:100CF000FFF77CFC01210820FFF778FC10208DF81D
:100D000007008020ADF8040003208DF8060001A93B
:100D10002A48FFF779FB10208DF80700ADF8040092
:100D200003208DF8060001A92548FFF76DFB182068
:100D30008DF807004FF48070ADF8040003208DF8A3
:100D4000060001A91D48FFF75FFB18208DF807007A
:100D50004FF40070ADF8040003208DF8060001A9DF
:100D60001648FFF751FB0020ADF81E00ADF81A0041
:100D70006320ADF81C0041F61F40ADF8180006A92D
:100D80001048FFF7DFFD7020ADF808000020ADF837
:100D900010000120ADF80A000020ADF80E0002A9F5
:100DA0000848FFF737FD02A90648FFF783FD012138
:100DB0000448FFF7D3FC09B000BD0000000C01405F
:100DC000000801400008004010B5054800F00AF88E
:100DD0004FF49670FFF77CFEFFF704FF10BD000094
:100DE0000000A0402DE9F14F82B0029800F0E2FC33
:100DF000804600220F4B00F0F5FA064600220E4B0B
:100E000000F054F9044600220C4B00F0A7F882468B
:100E100000F0A4FA80B2019000F034FD0290029834
:100E200000F010FD84B221460548FFF781FDBDE8C2
:100E3000FE8F0000000049400000224000406F404B
:100E4000000C004070B50446C4F16400C5B22946E8
:100E50000148FFF771FD70BD0008004070B5044601
:100E6000C4F16400C5B229460148FFF763FD70BDB7
:100E70000008004000B589B001210420FFF7B6FB4F
:100E800001210820FFF7A2FB18208DF82300012084
:100E9000ADF8200003208DF8220008A91448FFF7C0
:100EA000B3FA0020ADF81A0042F20F70ADF8180046
:100EB0008F20ADF814000020ADF8160005A90D48EC
:100EC000FFF740FD6020ADF804000020ADF80C00F5
:100ED0000120ADF806000020ADF80A0001A9054880
:100EE000FFF74CFC01210348FFF738FC09B000BDB7
:100EF00000080140000C004021F00042A2F16052C5
:100F0000B2F5801F01F0004328BFD2F17F6C0BD9EE
:100F10005FEA001C43EAC20242EB507018BF704700
:100F200028BF20F001007047B2F5801FBCBF1846F3
:100F300070474FEA410C1CF5001F02D2084600F032
:100F40007CBD70B500F0F8FA00000089FFF7F6BF2D
:100F50004FF00040A0F580007047000010B591EA06
:100F6000030F48BF83F0004300F14283841A71EB02
:100F7000030C05D2121943EB0C03001B61EB0C01AF
:100F8000DFF824E14FEA1154A4EB135C1EEA430F8F
:100F900018BF9EEA445F73D023EA0E03DCF1200EF3
:100FA00021EA045143F4801332D322FA0CFE10EBF1
:100FB0000E0023FA0CFE41EB0E01CCF1200E03FAD9
:100FC0000EFE10EB0E0051F10001B1F5801FCCF1C7
:100FD000200E32D201EB045112FA0EF2BDE810409D
:100FE00058BF7047401C38BF5FEA420218BF7047C5
:100FF000002814BF20F0010041F100014FEA410335
:1010000013F5001F38BF7047A1F1C04100F0E2BAEC
:10101000012A43EB0302ACF1200CDCF11F0E32BFBE
:101020004FF0000E23FA0CF310EB030041EB0451D8
:10103000B4EB115FD0D0A1EB045101F58011490848
:101040005FEA300001EB04510ED350F1000038BFCD
:1010500012FA0EFE08D1BDE81040C9E7401C38BFA7
:101060005FEA4202CAD1C3E7BDE810404FEA41033C
:1010700013F5001F38BF7047A1F1C04100F0AABAB4
:101080009EEA445F08D011EA5E0FBDE8104004BF3D
:1010900001F0004100207047BDE8104070B500F03D
:1010A0004BFA00BF64FBBE3E0000E0FF2DE9C041EB
:1010B00030B4DFF8A0C23CEA111418BF3CEA1314A4
:1010C00000F0EC8081EA03051CEA111444EAD574AF
:1010D00018BF1CEA131500F0C780A4EB05044FF0FD
:1010E000004545EAC12145EAC32341EA505143EA9C
:1010F000525304F17F74994204F500344FEAC02042
:101100004FEAC22208BF904200F09C804FEA13656C
:101110000FF24016765D4FEA134506FB05F7C7F15F
:10112000807706FB07F74FEAD737A7FB03687642BD
:10113000C8F58038A7FB06CE38BFA8F1010807FB29
:1011400008E64FF0000EA6FB028CE6FB03CEDCF1B6
:10115000000CCEF1004E38BFAEF1010EA6FB0C58CC
:101160004FF000074FF00005E6FB0E87A1FB08C615
:10117000A0FB07CE16EB0E0645F10005E1FB076567
:1011800015F1E04E7EBFA4F580345FEA46066D415E
:1011900016F1800745F100054FEA17274FEA06666A
:1011A00047EA0567A6F1DE46B6F1805F4FEA1525EE
:1011B0001FD9384624F0010C05EBC471BCF1FE6F59
:1011C00001EB0C1102D8F0BCBDE8008124425CBFE9
:1011D00001F5801E9EEAC47F02D4F0BCBDE8008108
:1011E000244238D4F0BCA1F1C041BDE8004100F078
:1011F000F1B94FEAD22242EA43524FEAD323A7FB86
:1012000002864FEAD02040EA415007FB03661EEAFF
:101210000E0F4FEAD12105FB026658BFA6EB005620
:10122000B6EB00564FEA520E4EEAC37E18EB0E0E96
:1012300056EB530EBDD518EB02085E417F1C55F1ED
:101240000005B6E74FF480154FF000074FF0000699
:101250004FF00008ADE7F0BC4FF0000001F1C041D5
:1012600001F00041BDE8008111EA0C1F0CEA1315E2
:1012700000D00CE013EA0C1F00F025804FF00000B6
:10128000F0BC81EA030101F00041BDE80081F0BC3F
:10129000BDE8004181EA030100F09CB9F0BCBDE863
:1012A000004170B500F048F9097EFC3E00F007B837
:1012B00081EA03014FF0000001F00041704781EA2C
:1012C000030100F087B9F0BCBDE800414FF0000019
:1012D00021497047FFFDFBF9F7F5F4F2F0EEEDEB75
:1012E000E9E8E6E4E3E1E0DEDDDBDAD8D7D5D4D324
:1012F000D1D0CFCDCCCBCAC8C7C6C5C4C2C1C0BF70
:10130000BEBDBCBBBAB9B8B7B6B5B4B3B2B1B0AF75
:10131000AEADACABAAA9A8A8A7A6A5A4A3A3A2A159
:10132000A09F9F9E9D9C9C9B9A9999989797969514
:1013300095949393929191908F8F8E8E8D8C8C8BB0
:101340008B8A898988888787868585848483838238
:10135000828181800000FF070000F87F4FEA11536F
:10136000A3F58063D3F11E03A8BFD3F1200C08DBE3
:101370004FF0004242EAC12252EA505232FA03F0E0
:10138000704709420BD4102BC4BF0020704703F5EF
:10139000787CBCF1FF3F05D04FF0FF3070474FF035
:1013A0000000704770B500F0C7F800BF4992248074
:1013B00000207047F0E710F0004248BF4042B0FA0A
:1013C00080F310FA03F10AD0C3F11D0303F5806323
:1013D0004FEA415002EB035202EBD12170474FF02C
:1013E00000007047DFF848C170B51CEA111E1EBF2F
:1013F0001CEA13159EEA0C0F95EA0C0F00F06F80A3
:1014000081EA030423EA4C134EEAD47E21EA4C110C
:1014100041F4801143F48013AE44A1FB024CA0FBC5
:101420000365AEF17F7E361955EB0C05A1FB034C2D
:101430004CF10003A0FB021C16EB0C06654153F1B6
:101440000003094218BF46F0010613F4007F0BD1D8
:101450004FEA03314FEA0530340341EA155140EABF
:1014600016506FF003020AE04FEAC3214FEAC5208D
:10147000F40241EA555140EA56506FF0020202EB85
:101480002E4201EB025585EACE710AD05FEA440C88
:1014900018BF24F0004450F1000041F1000120EA9F
:1014A000D47040F2FE7C624500D270BDA84214BFE9
:1014B0004FF080444FF04044002E08BF0024BEF19E
:1014C000806FA8BFA1F1C041BDE8704080F282806A
:1014D0004FF0000001F1C04101F0004170479EEA69
:1014E0000C0F0CEA131518BF95EA0C0F06D04FF03D
:1014F000000081EA030E0EF0004170BD00F01CF800
:101500008900013E00F007B800F009B84FEA430C2B
:101510005FEA5C5C08D081EA030100F05BB84FEA47
:10152000410C5FEA5C5CF6D14FF000000149704766
:101530000000FF070000F87F0EF1020E2EF0030EF0
:101540005EF8046B364205D4012A43EB030515F51A
:10155000001F12D8012841EB010C1CF5001F0CD80C
:101560000ED14FEAD17C15F5001F0CEB4C0C0CF1A1
:10157000020C08BF4CEBD37C04E04FF0080C01E0F8
:101580004FEAD37C0CEB4C0526FA05F606F007066D
:10159000B6F1040C06D20EEB860CBDE870404CF0A0
:1015A000010C6047DFE80CF0090B02024FF000412C
:1015B0004FF00000A1F5002170BD1946104601282A
:1015C00051EB010418BFD4F5001484BF002001F0D2
:1015D000004170BD0808A0F500114FEA31017047C5
:1015E00010B591EA030F48BF83F000433FF5BEAC4E
:1015F000841A71EB030C07D212198CF0004C43EBE8
:101600000C03001B61EB0C01DFF8A4E14FEA11545D
:10161000A4EB135C1EEA430F18BF9EEA445F00F080
:10162000B08023EA6E03524221EA0451C3EB6E03F9
:1016300038BF5B1EDCF1200E25D322FA0CFE10EB26
:101640000E0043FA0CFE41EB0E01CCF1200E03FA22
:101650000EFE10EB0E0051F10001CCF1200E29D44A
:1016600012FA0EF201EB0451BDE8104058BF70476A
:10167000401C1CBFB2F1004F704700280CBF491C32
:1016800020F00100704712EB020E43EB030218BF7B
:101690004FF0010E4EEA4202ACF1200CDCF11E0EBE
:1016A00054D943FA0CFE10EB0E0051F1FF31CCF18E
:1016B0001E0ED5D50EF1010E12FA0EFE404141EB81
:1016C000010101EB445C5FEA5C5C10D910EBDE7059
:1016D00001EB045138BFBEF1004FBDE8104018BF08
:1016E000704700280CBF491C20F00100704730D221
:1016F0004FEAD42C11F5001124F400641BD0B1FA88
:1017000081F20B3AA41AA41ED2F12003914030FAC0
:1017100003F31943904001EBCC71002C01EB045111
:10172000BDE81040A8BF704701F1C0414FF0000074
:1017300001F000417047B0FA80F310FA03F100D1D4
:1017400010BDE41A173C4805C90AE4E701EB04514F
:1017500010BD491001EB0451BDE810404FEA3000C4
:1017600002E04FF0000170474A0008BF0042F8D085
:10177000B2F5001F28BF704701F000414FF0000094
:1017800070479EEA445F07D011EA5E0FBDE8104043
:1017900004BF002100207047BDE8104070B5FFF77E
:1017A000CBFE00BF40DFF63E83F00041104670479D
:1017B0000000E0FF43004FEAD30C4FEA3C0C4340EB
:1017C0001FBF40070CF1605113F0FE4F70471CF033
:1017D000006F03D100200CF0004170470CF0004373
:1017E00043EA507010B540EACC0000F0E0F800BFCA
:1017F000000000924FEA0001FFF7ECBE4FF00041FD
:101800004FF00000A1F500217047000041000B0ED1
:10181000D3F19E0208D950F400034FEA032323FAC0
:1018200002F048BF4042704710B500F0C0F800BF5A
:1018300049922480002070476FF0004282EA200025
:1018400070470000C10DD1F19E0206DB4FEA002374
:1018500043F0004323FA02F07047004207D54FEAF5
:101860004001B1F1FE4F02D24FF00000704710B5B9
:1018700000F09DF849922480002070476FEA200014
:1018800070470000B0FA80F310FA03F2C3F19D0331
:101890000AD0D90501EB1220530638BF704700F17A
:1018A000010008BF20F00100704700004FF47F0CDA
:1018B0001CEAD0121EBF1CEAD11392EA0C0F93EA65
:1018C0000C0F00F0478090EA010F48BF42F480728D
:1018D0004FF0004C4CEA00204CEA012102EB0302DD
:1018E000A0FB0113A2F50002002918BF43F0010379
:1018F0005B0028BF4FEA330342EB22425FEA132C1E
:101900004CEBC2502EBFBCEB436FB2F57C0F70475F
:101910004FEA036CBCF1004F08BF20F00100B2F5A4
:101920007C0F38BF70470BD582F0FF0212F5803F65
:10193000C8BF704700F1C040D8BF00F000407047FA
:1019400000F5000C5FEA4C0C48BF7047B0F1C04096
:1019500000F073B890EA010F0CEAD11348BF42F4CB
:101960008072624538BF634504D280EA010000F00E
:101970000040704710B500F01AF800BF8900013E22
:1019800000F007B800F009B85FEA410C5FEA1C6C90
:1019900008D080EA010000F050B85FEA400C5FEA2E
:1019A0001C6CF6D14FF00040A0F5800070470EF19E
:1019B000020E2EF0030E5EF8044B244204D44FEACC
:1019C0004102B2F17F4F11D84FEA4003B3F17F4F8C
:1019D0000CD80ED14FEAD07CB2F17F4F0CEB4C0CFF
:1019E0000CF1020C08BF4CEBD17C04E04FF0080C6A
:1019F00001E04FEAD17C0CEB4C0324FA03F404F031
:101A00000704B4F1040C06D20EEB840CBDE81040C0
:101A10004CF0010C6047DFE80CF0070802024FF0C1
:101A20000040A0F5800010BD0846420018BFD2F16A
:101A3000807288BF00F0004010BDFF2141EAD05005
:101A4000C0057047641A0008000000200400000070
:101A50006C010008681A00080400002064060000F9
:081A60008801000800000000ED
:0400000508000131BD
:00000001FF
